S00B00006D61696E2E61343359
S113C000314000043C4008020D433E405E00B01243
S113C01050C93C4000023D4062C90D9C04243E408E
S113C0200800B0120AC90C43B012D6C0B2403C009A
S113C0307201B24010026001B24010006201B240CD
S113C04070006401304182431002C2430C02C243B7
S113C0500D0282430A02C243080230415C420D02CF
S113C0600C930320B0122CC03041B24060EA72013C
S113C070B24010026001B24010006201B240700090
S113C08064013041C2435600C2435700F24081FF6D
S113C0905700C2435800F240C8FF5800C24353003F
S113C0A0F240200053003041D24219025600F2D02F
S113C0B080FF5600D24218025700F2F0F9FF5800F0
S113C0C0C2435800B24024026001F2D080FF5700FE
S113C0D0D2430D0230410A12B240805A2001C243B9
S113C0E05600C2435700F24081FF5700C243580034
S113C0F0F240C8FF5800C2435300F24020005300EE
S113C100B0127CC2B0126AC282431002C2430C0253
S113C110C2430D0282430A02C24308025C420D027A
S113C1200C9354203A402CC08A1232D2B01246C228
S113C130B0129CC232C20343B012A8C05C420D02CA
S113C1400C9337208A1232D2B012E8C6B01294C8C7
S113C150B01214C7B012CCC6B012A2C8D2D32100F8
S113C1603A4056C86F433E4006027D404A005C4355
S113C1708A127F4003003E4003027D404A005C4334
S113C1808A127F4003003E4000027D404A005C4327
S113C1908A127E4006007D404B005C43B01276C894
S113C1A07E4006003D405F023C404402B0121AC685
S113C1B0FF3FB24060EA7201B24010026001B24037
S113C1C010006201B24070006401BD3FB24060EAF9
S113C1D07201B24010026001B24010006201B2402C
S113C1E0700064013A402CC0A03F92C36201001366
S113C1F00D120C12925310021C4210027D40630077
S113C2000D9C092CC2930C020F20D2430C02D2D3F2
S113C21021008243100292530E0292530A0292C3E7
S113C22064013C413D410013C2430C02D2C32100CE
S113C23082431002F03FD2C30000D2C30200B240D6
S113C240805A20010013B24060A4B201B240703899
S113C250B001A2C2B001B2D00300B00130411C420F
S113C260B401B2D00300B0013041F2D04100220049
S113C270D2C32100F2F0BFFF21003041F2C22200FC
S113C280F2D22100F2D2270030419242B4011202CC
S113C290A2C2B001B2D00300B00100130A12091205
S113C2A008120712061205120412318058007E404B
S113C2B040003D40C0100C413C501800B012EEC884
S113C2C05C421B02814C08005D421A02814D0A0047
S113C2D05E421902814E0C005F421802814F0E002B
S113C2E05C421702814C10005D421602814D12001F
S113C2F05E421502814E14005F421402814F160003
S113C30091422A0200009142280202009142260230
S113C3100400164224021742220218422002194243
S113C3201E021A421C025B411A008143060014419A
S113C33006006C436E4255434F4E7B90FEFF6324D0
S113C3407B901000A7245B93F7237D4018000D51C8
S113C3500F5D6F4F814F08004D4C7D5003003DF041
S113C360FF007E4018000E510D5E6D4D814D0A0098
S113C3704D4C6D523DF0FF000D5E6D4D814D0C0036
S113C3804D4C7D5005003DF0FF000D5E6D4D814D1F
S113C3900E004D4C7D5006003DF0FF000D5E6D4DCE
S113C3A0814D10004D4C7D5007003DF0FF000D5EA7
S113C3B06D4D814D12004D4C7D5009004E4D7D5305
S113C3C03DF0FF007F4018000F510D5F6D4D814D12
S113C3D014007C500A003CF0FF000D4F0D5E6D4DC3
S113C3E0814D1600814506007D403F004D9C172875
S113C3F07D4018000D510D5C6B4D4E4C6E534F4EED
S113C4007B90FEFF9D235C534D4C7C4018000C51E7
S113C4100D5C6E5D4C4E7D403F004D9CE92F0493B6
S113C4201224A2412A0292410200280292410400ED
S113C430260282462402824722028248200282493E
S113C4401E02824A1C028193060020241E41080019
S113C450C24E1B021F410A00C24F1A021C410C00AB
S113C460C24C19021D410E00C24D18021E4110009B
S113C470C24E17021F411200C24F16021C41140083
S113C480C24C15021D411600C24D14023150580011
S113C4903040DEC84D4C7D5003003DF0FF007E402F
S113C4A018000E510D5E6D4D0D5D0D5D0D5D0D5D44
S113C4B00D5D0D5D0D5D0D5D0F5E6F4F0F5D814F69
S113C4C000004D4C7D5005003DF0FF000D5E6E4DAB
S113C4D00E5E0E5E0E5E0E5E0E5E0E5E0E5E0E5EF8
S113C4E04D4C6D523DF0FF007F4018000F510D5F21
S113C4F06D4D0D5E814D02004D4C7D5007003DF0A9
S113C500FF000D5F6E4D0E5E0E5E0E5E0E5E0E5EE5
S113C5100E5E0E5E0E5E4D4C7D5006003DF0FF003B
S113C5200D5F6D4D0D5E814D04004D4C7D50090035
S113C5303DF0FF000D5F664D06560656065606563C
S113C54006560656065606564D4C7D523DF0FF00E3
S113C5500D5F6D4D065D4D4C7D500B003DF0FF00B1
S113C5600D5F674D07570757075707570757075773
S113C570075707574D4C7D500A003DF0FF000D5FF3
S113C5806D4D075D4D4C7D500D003DF0FF000D5F7E
S113C590684D085808580858085808580858085842
S113C5A008584D4C7D500C003DF0FF000D5F6D4D63
S113C5B0085D4D4C7D500F003DF0FF000D5F694D4F
S113C5C00959095909590959095909590959095957
S113C5D04D4C7D500E003DF0FF000D5F6D4D095D2B
S113C5E04E4C7E5011003EF0FF004D4C7D5010002B
S113C5F03DF0FF000D5F7C5012003CF0FF000E5F29
S113C6006A4E0A5A0A5A0A5A0A5A0A5A0A5A0A5AB2
S113C6100A5A6D4D0A5D0445E73E4F4E4E930B2476
S113C6200E4C1E537F533FF0FF000E5FFD4C000085
S113C6301D530C9EFB2330410A1209123CF0FF00EB
S113C640494E92435A02C24C58024E930F243E4024
S113C6502E024A497A533AF0FF000A5D6B4D0F4DA2
S113C6601D53CE4B00001E530F9AF823C2492D02CE
S113C670C2434302C2434202C2432C02F2B2030049
S113C680FD27C24C6F0032D018005C432D3D3CF0B6
S113C690FF0092435A02C24C5802C24D4302C243A5
S113C6A02D02C2434202C2432C02F2B20300FD2710
S113C6B0C24C6F0032D018005C4330413CF0FF00A4
S113C6C0F2B20300FD27C24C6F0030415C42F91006
S113C6D07C930924C2435600D242F9105700D24237
S113C6E0F81056003041FF3FF2D0E0FF2600F2D0B0
S113C6F0E0FF4100F2D0A0FF2200F2C22200F2D2F9
S113C7002100F2D22700F2D22500F2D22400F2C294
S113C71023003041F2D069006800F2D080FF690044
S113C720F2D020006A00C2436B00C2436400D2C34B
S113C7306900E2D2010030410F120E120D120C12E8
S113C740E2B2030013245D426E001C425A023C9084
S113C750030011242C9225241C93422403430D121C
S113C7603D400E001D83FE233D4103433C413D41BA
S113C7703E413F4100135C422D02C2932D0223240B
S113C7805D422C024E4D5E53C24E2C025D4D2E0274
S113C790F2B20300FD27C24D6F007C53C24C2D0240
S113C7A0DE3F5C424302C29343020D245E424202D6
S113C7B04F4E5F53C24F4202CE4D44027C53C24C93
S113C7C043024C93262082435A02B1C01000080051
S113C7D00D123D400E001D83FE233D410343C63F21
S113C7E0C29343021D24A2425A020D123D409802F4
S113C7F01D83FE233D410343F2B20300FD27F243B0
S113C8006F000D123D400E001D83FE233D41034386
S113C810AD3FF2B20300F323F2B20300FA27EF3F75
S113C820B24003005A025C422C024D4C5D53C24D8F
S113C8302C025C4C2E02F2B20300FD27C24C6F00A6
S113C840F2532D028C3FF2C22300F2C22500B1C084
S113C8501000000000134B4D0D4E7CF00700C2DCAD
S113C86029004E4F4C4BB01238C6F2F0F8FF2900A5
S113C8701C425A0230414F4D7CF00700C2DC2900B3
S113C8804D4E4C4FB0128EC6F2F0F8FF29001C42F8
S113C8905A023041F2D007002A00F2F0F8FF2900D2
S113C8A03041B240805A20015C42FF107C93162430
S113C8B0F24006002600F24006004100F2D080FF5C
S113C8C06100F2408AFF6200C2436300F2400E003E
S113C8D06400D2C36100D2D301003041FF3F344130
S113C8E0354136413741384139413A4130410A12E4
S113C8F04F430E9F02203A4130410B4C0B5F0A4DCF
S113C9000A5FEB4A00001F53F43F0A1209120D9C00
S113C9101D2C0A4D0A5E0C9A192C094E39E34D431D
S113C9203D53099D0120E03F0F4E0F5D0F5C0B4A04
S113C9300B5DEF4B0000F43F0B4D0B5F0A4C0A5F9D
S113C940EA4B00001F530E9FF723ED3F4F43FB3F7D
S113C9500E5C0F4C0F9E012030411F53CF4DFFFF43
S105C960F93F99
S10BC96212088000F000052812
S105FFE446C809
S105FFEA8AC2C5
S105FFEE38C70E
S105FFF0F0C15A
S105FFF2EAC15E
S105FFF436C20F
S105FFFE00C03D
S903C0003C
